{
  "contractName": "KycContract",
  "abi": [
    {
      "anonymous": false,
      "inputs": [
        {
          "indexed": true,
          "internalType": "address",
          "name": "previousOwner",
          "type": "address"
        },
        {
          "indexed": true,
          "internalType": "address",
          "name": "newOwner",
          "type": "address"
        }
      ],
      "name": "OwnershipTransferred",
      "type": "event"
    },
    {
      "inputs": [],
      "name": "owner",
      "outputs": [
        {
          "internalType": "address",
          "name": "",
          "type": "address"
        }
      ],
      "stateMutability": "view",
      "type": "function",
      "constant": true
    },
    {
      "inputs": [],
      "name": "renounceOwnership",
      "outputs": [],
      "stateMutability": "nonpayable",
      "type": "function"
    },
    {
      "inputs": [
        {
          "internalType": "address",
          "name": "newOwner",
          "type": "address"
        }
      ],
      "name": "transferOwnership",
      "outputs": [],
      "stateMutability": "nonpayable",
      "type": "function"
    },
    {
      "inputs": [
        {
          "internalType": "address",
          "name": "_addr",
          "type": "address"
        }
      ],
      "name": "setKycWhitelisted",
      "outputs": [],
      "stateMutability": "nonpayable",
      "type": "function"
    },
    {
      "inputs": [
        {
          "internalType": "address",
          "name": "_addr",
          "type": "address"
        }
      ],
      "name": "setKycRevoked",
      "outputs": [],
      "stateMutability": "nonpayable",
      "type": "function"
    },
    {
      "inputs": [
        {
          "internalType": "address",
          "name": "_addr",
          "type": "address"
        }
      ],
      "name": "kycWhitelisted",
      "outputs": [
        {
          "internalType": "bool",
          "name": "",
          "type": "bool"
        }
      ],
      "stateMutability": "view",
      "type": "function",
      "constant": true
    },
    {
      "inputs": [
        {
          "internalType": "address[]",
          "name": "_addresses",
          "type": "address[]"
        }
      ],
      "name": "setMultipleAddressWhitelist",
      "outputs": [],
      "stateMutability": "nonpayable",
      "type": "function"
    },
    {
      "inputs": [
        {
          "internalType": "address[]",
          "name": "_addresses",
          "type": "address[]"
        }
      ],
      "name": "setMultipleAddressRevoke",
      "outputs": [],
      "stateMutability": "nonpayable",
      "type": "function"
    }
  ],
  "bytecode": "0x608060405234801561001057600080fd5b5061002d61002261003260201b60201c565b61003a60201b60201c565b6100fe565b600033905090565b60008060009054906101000a900473ffffffffffffffffffffffffffffffffffffffff169050816000806101000a81548173ffffffffffffffffffffffffffffffffffffffff021916908373ffffffffffffffffffffffffffffffffffffffff1602179055508173ffffffffffffffffffffffffffffffffffffffff168173ffffffffffffffffffffffffffffffffffffffff167f8be0079c531659141344cd1fd0a4f28419497f9722a3daafe3b4186f6b6457e060405160405180910390a35050565b610bc58061010d6000396000f3fe608060405234801561001057600080fd5b50600436106100885760003560e01c8063bbb50dfb1161005b578063bbb50dfb14610101578063dc3958cc1461011d578063e68ff4b814610139578063f2fde38b1461015557610088565b806348496c251461008d578063715018a6146100a95780638da5cb5b146100b3578063a21f580e146100d1575b600080fd5b6100a760048036038101906100a29190610898565b610171565b005b6100b1610292565b005b6100bb61031a565b6040516100c89190610926565b60405180910390f35b6100eb60048036038101906100e6919061096d565b610343565b6040516100f891906109b5565b60405180910390f35b61011b60048036038101906101169190610898565b610399565b005b6101376004803603810190610132919061096d565b6104b9565b005b610153600480360381019061014e919061096d565b610590565b005b61016f600480360381019061016a919061096d565b610666565b005b61017961075d565b73ffffffffffffffffffffffffffffffffffffffff1661019761031a565b73ffffffffffffffffffffffffffffffffffffffff16146101ed576040517f08c379a00000000000000000000000000000000000000000000000000000000081526004016101e490610a2d565b60405180910390fd5b60005b8282905081101561028d5760006001600085858581811061021457610213610a4d565b5b9050602002016020810190610229919061096d565b73ffffffffffffffffffffffffffffffffffffffff1673ffffffffffffffffffffffffffffffffffffffff16815260200190815260200160002060006101000a81548160ff021916908315150217905550808061028590610ab5565b9150506101f0565b505050565b61029a61075d565b73ffffffffffffffffffffffffffffffffffffffff166102b861031a565b73ffffffffffffffffffffffffffffffffffffffff161461030e576040517f08c379a000000000000000000000000000000000000000000000000000000000815260040161030590610a2d565b60405180910390fd5b6103186000610765565b565b60008060009054906101000a900473ffffffffffffffffffffffffffffffffffffffff16905090565b6000600160008373ffffffffffffffffffffffffffffffffffffffff1673ffffffffffffffffffffffffffffffffffffffff16815260200190815260200160002060009054906101000a900460ff169050919050565b6103a161075d565b73ffffffffffffffffffffffffffffffffffffffff166103bf61031a565b73ffffffffffffffffffffffffffffffffffffffff1614610415576040517f08c379a000000000000000000000000000000000000000000000000000000000815260040161040c90610a2d565b60405180910390fd5b60005b828290508110156104b457600180600085858581811061043b5761043a610a4d565b5b9050602002016020810190610450919061096d565b73ffffffffffffffffffffffffffffffffffffffff1673ffffffffffffffffffffffffffffffffffffffff16815260200190815260200160002060006101000a81548160ff02191690831515021790555080806104ac90610ab5565b915050610418565b505050565b6104c161075d565b73ffffffffffffffffffffffffffffffffffffffff166104df61031a565b73ffffffffffffffffffffffffffffffffffffffff1614610535576040517f08c379a000000000000000000000000000000000000000000000000000000000815260040161052c90610a2d565b60405180910390fd5b6000600160008373ffffffffffffffffffffffffffffffffffffffff1673ffffffffffffffffffffffffffffffffffffffff16815260200190815260200160002060006101000a81548160ff02191690831515021790555050565b61059861075d565b73ffffffffffffffffffffffffffffffffffffffff166105b661031a565b73ffffffffffffffffffffffffffffffffffffffff161461060c576040517f08c379a000000000000000000000000000000000000000000000000000000000815260040161060390610a2d565b60405180910390fd5b60018060008373ffffffffffffffffffffffffffffffffffffffff1673ffffffffffffffffffffffffffffffffffffffff16815260200190815260200160002060006101000a81548160ff02191690831515021790555050565b61066e61075d565b73ffffffffffffffffffffffffffffffffffffffff1661068c61031a565b73ffffffffffffffffffffffffffffffffffffffff16146106e2576040517f08c379a00000000000000000000000000000000000000000000000000000000081526004016106d990610a2d565b60405180910390fd5b600073ffffffffffffffffffffffffffffffffffffffff168173ffffffffffffffffffffffffffffffffffffffff1603610751576040517f08c379a000000000000000000000000000000000000000000000000000000000815260040161074890610b6f565b60405180910390fd5b61075a81610765565b50565b600033905090565b60008060009054906101000a900473ffffffffffffffffffffffffffffffffffffffff169050816000806101000a81548173ffffffffffffffffffffffffffffffffffffffff021916908373ffffffffffffffffffffffffffffffffffffffff1602179055508173ffffffffffffffffffffffffffffffffffffffff168173ffffffffffffffffffffffffffffffffffffffff167f8be0079c531659141344cd1fd0a4f28419497f9722a3daafe3b4186f6b6457e060405160405180910390a35050565b600080fd5b600080fd5b600080fd5b600080fd5b600080fd5b60008083601f84011261085857610857610833565b5b8235905067ffffffffffffffff81111561087557610874610838565b5b6020830191508360208202830111156108915761089061083d565b5b9250929050565b600080602083850312156108af576108ae610829565b5b600083013567ffffffffffffffff8111156108cd576108cc61082e565b5b6108d985828601610842565b92509250509250929050565b600073ffffffffffffffffffffffffffffffffffffffff82169050919050565b6000610910826108e5565b9050919050565b61092081610905565b82525050565b600060208201905061093b6000830184610917565b92915050565b61094a81610905565b811461095557600080fd5b50565b60008135905061096781610941565b92915050565b60006020828403121561098357610982610829565b5b600061099184828501610958565b91505092915050565b60008115159050919050565b6109af8161099a565b82525050565b60006020820190506109ca60008301846109a6565b92915050565b600082825260208201905092915050565b7f4f776e61626c653a2063616c6c6572206973206e6f7420746865206f776e6572600082015250565b6000610a176020836109d0565b9150610a22826109e1565b602082019050919050565b60006020820190508181036000830152610a4681610a0a565b9050919050565b7f4e487b7100000000000000000000000000000000000000000000000000000000600052603260045260246000fd5b7f4e487b7100000000000000000000000000000000000000000000000000000000600052601160045260246000fd5b6000819050919050565b6000610ac082610aab565b91507fffffffffffffffffffffffffffffffffffffffffffffffffffffffffffffffff8203610af257610af1610a7c565b5b600182019050919050565b7f4f776e61626c653a206e6577206f776e657220697320746865207a65726f206160008201527f6464726573730000000000000000000000000000000000000000000000000000602082015250565b6000610b596026836109d0565b9150610b6482610afd565b604082019050919050565b60006020820190508181036000830152610b8881610b4c565b905091905056fea264697066735822122000b7211912dc9279b090320803f6c60431f07c92d18336860d6c3ff78eba71bc64736f6c634300080f0033",
  "immutableReferences": {},
  "source": "//SPDX-License-Identifier: MIT\r\npragma solidity ^0.8.1;\r\n\r\nimport \"@openzeppelin/contracts/access/Ownable.sol\";\r\n\r\ncontract KycContract is Ownable {\r\n    mapping(address => bool) allowed;\r\n\r\n    function setKycWhitelisted(address _addr)  public onlyOwner{\r\n        allowed[_addr] = true;\r\n    }\r\n\r\n    function setKycRevoked(address _addr) public onlyOwner{\r\n        allowed[_addr] = false;\r\n    }\r\n\r\n    function kycWhitelisted(address _addr) public view returns(bool) {\r\n        return allowed[_addr];\r\n    }\r\n    \r\n    function setMultipleAddressWhitelist(address[] calldata  _addresses) external onlyOwner {\r\n        for(uint i = 0; i < _addresses.length; i++){\r\n            allowed[_addresses[i]] = true;\r\n        }\r\n    }\r\n\r\n    function setMultipleAddressRevoke(address[] calldata  _addresses) external onlyOwner {\r\n        for(uint i = 0; i < _addresses.length; i++){\r\n            allowed[_addresses[i]] = false;\r\n        }\r\n    }\r\n\r\n}\r\n",
  "sourcePath": "D:\\Dev\\Estudos\\BlockchainDev\\UdemyCourseLab3-Tokenization\\contracts\\KycContract.sol",
  "compiler": {
    "name": "solc",
    "version": "0.8.15+commit.e14f2714.Emscripten.clang"
  },
  "schemaVersion": "3.4.7",
  "updatedAt": "2022-06-21T01:23:07.292Z",
  "networkType": "ethereum",
  "devdoc": {
    "kind": "dev",
    "methods": {
      "owner()": {
        "details": "Returns the address of the current owner."
      },
      "renounceOwnership()": {
        "details": "Leaves the contract without owner. It will not be possible to call `onlyOwner` functions anymore. Can only be called by the current owner. NOTE: Renouncing ownership will leave the contract without an owner, thereby removing any functionality that is only available to the owner."
      },
      "transferOwnership(address)": {
        "details": "Transfers ownership of the contract to a new account (`newOwner`). Can only be called by the current owner."
      }
    },
    "version": 1
  },
  "userdoc": {
    "kind": "user",
    "methods": {},
    "version": 1
  }
}