{
  "contractName": "MintedCrowdsale",
  "abi": [
    {
      "inputs": [
        {
          "internalType": "uint256",
          "name": "_inRate",
          "type": "uint256"
        },
        {
          "internalType": "address payable",
          "name": "_inWallet",
          "type": "address"
        },
        {
          "internalType": "contract IERC20",
          "name": "_inToken",
          "type": "address"
        }
      ],
      "stateMutability": "nonpayable",
      "type": "constructor"
    },
    {
      "anonymous": false,
      "inputs": [
        {
          "indexed": true,
          "internalType": "address",
          "name": "purchaser",
          "type": "address"
        },
        {
          "indexed": true,
          "internalType": "address",
          "name": "beneficiary",
          "type": "address"
        },
        {
          "indexed": false,
          "internalType": "uint256",
          "name": "value",
          "type": "uint256"
        },
        {
          "indexed": false,
          "internalType": "uint256",
          "name": "amount",
          "type": "uint256"
        }
      ],
      "name": "TokensPurchased",
      "type": "event"
    },
    {
      "stateMutability": "payable",
      "type": "fallback"
    },
    {
      "inputs": [
        {
          "internalType": "address",
          "name": "beneficiary",
          "type": "address"
        }
      ],
      "name": "buyTokens",
      "outputs": [],
      "stateMutability": "payable",
      "type": "function"
    },
    {
      "inputs": [],
      "name": "getRate",
      "outputs": [
        {
          "internalType": "uint256",
          "name": "",
          "type": "uint256"
        }
      ],
      "stateMutability": "view",
      "type": "function"
    },
    {
      "inputs": [],
      "name": "rate",
      "outputs": [
        {
          "internalType": "uint256",
          "name": "",
          "type": "uint256"
        }
      ],
      "stateMutability": "view",
      "type": "function"
    },
    {
      "inputs": [],
      "name": "token",
      "outputs": [
        {
          "internalType": "contract IERC20",
          "name": "",
          "type": "address"
        }
      ],
      "stateMutability": "view",
      "type": "function"
    },
    {
      "inputs": [],
      "name": "wallet",
      "outputs": [
        {
          "internalType": "address payable",
          "name": "",
          "type": "address"
        }
      ],
      "stateMutability": "view",
      "type": "function"
    },
    {
      "inputs": [],
      "name": "weiRaised",
      "outputs": [
        {
          "internalType": "uint256",
          "name": "",
          "type": "uint256"
        }
      ],
      "stateMutability": "view",
      "type": "function"
    },
    {
      "stateMutability": "payable",
      "type": "receive"
    }
  ],
  "bytecode": "0x60806040523480156200001157600080fd5b5060405162000fb738038062000fb78339818101604052810190620000379190620002ff565b82828260016000819055506000831162000088576040517f08c379a00000000000000000000000000000000000000000000000000000000081526004016200007f90620003bc565b60405180910390fd5b600073ffffffffffffffffffffffffffffffffffffffff168273ffffffffffffffffffffffffffffffffffffffff1603620000fa576040517f08c379a0000000000000000000000000000000000000000000000000000000008152600401620000f19062000454565b60405180910390fd5b600073ffffffffffffffffffffffffffffffffffffffff168173ffffffffffffffffffffffffffffffffffffffff16036200016c576040517f08c379a00000000000000000000000000000000000000000000000000000000081526004016200016390620004ec565b60405180910390fd5b8260038190555081600260006101000a81548173ffffffffffffffffffffffffffffffffffffffff021916908373ffffffffffffffffffffffffffffffffffffffff16021790555080600160006101000a81548173ffffffffffffffffffffffffffffffffffffffff021916908373ffffffffffffffffffffffffffffffffffffffff1602179055505050505050506200050e565b600080fd5b6000819050919050565b6200021b8162000206565b81146200022757600080fd5b50565b6000815190506200023b8162000210565b92915050565b600073ffffffffffffffffffffffffffffffffffffffff82169050919050565b60006200026e8262000241565b9050919050565b620002808162000261565b81146200028c57600080fd5b50565b600081519050620002a08162000275565b92915050565b6000620002b38262000241565b9050919050565b6000620002c782620002a6565b9050919050565b620002d981620002ba565b8114620002e557600080fd5b50565b600081519050620002f981620002ce565b92915050565b6000806000606084860312156200031b576200031a62000201565b5b60006200032b868287016200022a565b93505060206200033e868287016200028f565b92505060406200035186828701620002e8565b9150509250925092565b600082825260208201905092915050565b7f4d7943726f776453616c653a2072617465206973203000000000000000000000600082015250565b6000620003a46016836200035b565b9150620003b1826200036c565b602082019050919050565b60006020820190508181036000830152620003d78162000395565b9050919050565b7f4d7943726f776453616c653a2077616c6c657420697320746865207a65726f2060008201527f6164647265737300000000000000000000000000000000000000000000000000602082015250565b60006200043c6027836200035b565b91506200044982620003de565b604082019050919050565b600060208201905081810360008301526200046f816200042d565b9050919050565b7f4d7943726f776453616c653a20746f6b656e20697320746865207a65726f206160008201527f6464726573730000000000000000000000000000000000000000000000000000602082015250565b6000620004d46026836200035b565b9150620004e18262000476565b604082019050919050565b600060208201905081810360008301526200050781620004c5565b9050919050565b610a99806200051e6000396000f3fe6080604052600436106100595760003560e01c80632c4e722e146100825780634042b66f146100ad578063521eb273146100d8578063679aefce14610103578063ec8ac4d81461012e578063fc0c546a1461014a57610070565b366100705761006e610069610175565b61017d565b005b61008061007b610175565b61017d565b005b34801561008e57600080fd5b506100976102a2565b6040516100a49190610576565b60405180910390f35b3480156100b957600080fd5b506100c26102ac565b6040516100cf9190610576565b60405180910390f35b3480156100e457600080fd5b506100ed6102b6565b6040516100fa91906105d2565b60405180910390f35b34801561010f57600080fd5b506101186102e0565b6040516101259190610576565b60405180910390f35b61014860048036038101906101439190610630565b61017d565b005b34801561015657600080fd5b5061015f6102ea565b60405161016c91906106bc565b60405180910390f35b600033905090565b6002600054036101c2576040517f08c379a00000000000000000000000000000000000000000000000000000000081526004016101b990610734565b60405180910390fd5b600260008190555060003490506101d98282610314565b60006101e4826103ca565b90506101fb826004546103e890919063ffffffff16565b60048190555061020b83826103fe565b8273ffffffffffffffffffffffffffffffffffffffff1661022a610175565b73ffffffffffffffffffffffffffffffffffffffff167f6faf93231a456e552dbc9961f58d9713ee4f2e69d15f1975b050ef0911053a7b8484604051610271929190610754565b60405180910390a3610283838361040c565b61028b610410565b610295838361047b565b5050600160008190555050565b6000600354905090565b6000600454905090565b6000600260009054906101000a900473ffffffffffffffffffffffffffffffffffffffff16905090565b6000600354905090565b6000600160009054906101000a900473ffffffffffffffffffffffffffffffffffffffff16905090565b600073ffffffffffffffffffffffffffffffffffffffff168273ffffffffffffffffffffffffffffffffffffffff1603610383576040517f08c379a000000000000000000000000000000000000000000000000000000000815260040161037a906107ef565b60405180910390fd5b600081036103c6576040517f08c379a00000000000000000000000000000000000000000000000000000000081526004016103bd9061085b565b60405180910390fd5b5050565b60006103e16003548361047f90919063ffffffff16565b9050919050565b600081836103f691906108aa565b905092915050565b6104088282610495565b5050565b5050565b600260009054906101000a900473ffffffffffffffffffffffffffffffffffffffff1673ffffffffffffffffffffffffffffffffffffffff166108fc349081150290604051600060405180830381858888f19350505050158015610478573d6000803e3d6000fd5b50565b5050565b6000818361048d9190610900565b905092915050565b61049d6102ea565b73ffffffffffffffffffffffffffffffffffffffff166340c10f1983836040518363ffffffff1660e01b81526004016104d7929190610969565b6020604051808303816000875af11580156104f6573d6000803e3d6000fd5b505050506040513d601f19601f8201168201806040525081019061051a91906109ca565b610559576040517f08c379a000000000000000000000000000000000000000000000000000000000815260040161055090610a43565b60405180910390fd5b5050565b6000819050919050565b6105708161055d565b82525050565b600060208201905061058b6000830184610567565b92915050565b600073ffffffffffffffffffffffffffffffffffffffff82169050919050565b60006105bc82610591565b9050919050565b6105cc816105b1565b82525050565b60006020820190506105e760008301846105c3565b92915050565b600080fd5b60006105fd82610591565b9050919050565b61060d816105f2565b811461061857600080fd5b50565b60008135905061062a81610604565b92915050565b600060208284031215610646576106456105ed565b5b60006106548482850161061b565b91505092915050565b6000819050919050565b600061068261067d61067884610591565b61065d565b610591565b9050919050565b600061069482610667565b9050919050565b60006106a682610689565b9050919050565b6106b68161069b565b82525050565b60006020820190506106d160008301846106ad565b92915050565b600082825260208201905092915050565b7f5265656e7472616e637947756172643a207265656e7472616e742063616c6c00600082015250565b600061071e601f836106d7565b9150610729826106e8565b602082019050919050565b6000602082019050818103600083015261074d81610711565b9050919050565b60006040820190506107696000830185610567565b6107766020830184610567565b9392505050565b7f4d7943726f776453616c653a2062656e6566696369617279206973207468652060008201527f7a65726f20616464726573730000000000000000000000000000000000000000602082015250565b60006107d9602c836106d7565b91506107e48261077d565b604082019050919050565b60006020820190508181036000830152610808816107cc565b9050919050565b7f4d7943726f776453616c653a20776569416d6f756e7420697320300000000000600082015250565b6000610845601b836106d7565b91506108508261080f565b602082019050919050565b6000602082019050818103600083015261087481610838565b9050919050565b7f4e487b7100000000000000000000000000000000000000000000000000000000600052601160045260246000fd5b60006108b58261055d565b91506108c08361055d565b9250827fffffffffffffffffffffffffffffffffffffffffffffffffffffffffffffffff038211156108f5576108f461087b565b5b828201905092915050565b600061090b8261055d565b91506109168361055d565b9250817fffffffffffffffffffffffffffffffffffffffffffffffffffffffffffffffff048311821515161561094f5761094e61087b565b5b828202905092915050565b610963816105f2565b82525050565b600060408201905061097e600083018561095a565b61098b6020830184610567565b9392505050565b60008115159050919050565b6109a781610992565b81146109b257600080fd5b50565b6000815190506109c48161099e565b92915050565b6000602082840312156109e0576109df6105ed565b5b60006109ee848285016109b5565b91505092915050565b7f4d696e74656443726f776473616c653a206d696e74696e67206661696c656400600082015250565b6000610a2d601f836106d7565b9150610a38826109f7565b602082019050919050565b60006020820190508181036000830152610a5c81610a20565b905091905056fea264697066735822122012415782b65698fcb0e2a7680d0ca52f092ebfdf828e897ff9ae300c13937b2864736f6c634300080f0033",
  "immutableReferences": {},
  "source": "// SPDX-License-Identifier: MIT\r\npragma solidity ^0.8.0;\r\n\r\nimport \"./MyMintableCrowdSale.sol\";\r\nimport \"./ERC20Mintable.sol\";\r\n\r\n/**\r\n* Copied from https://github.com/OpenZeppelin/openzeppelin-contracts/blob/v2.5.0/contracts/crowdsale/emission/MintedCrowdsale.sol\r\n * @title MintedCrowdsale\r\n * @dev Extension of Crowdsale contract whose tokens are minted in each purchase.\r\n * Token ownership should be transferred to MintedCrowdsale for minting.\r\n */\r\ncontract MintedCrowdsale is MyMintableCrowdSale {\r\n    /**\r\n     * @dev Overrides delivery by minting tokens upon purchase.\r\n     * @param beneficiary Token purchaser\r\n     * @param tokenAmount Number of tokens to be minted\r\n     */\r\n    function _deliverTokens(address beneficiary, uint256 tokenAmount) internal override {\r\n        // Potentially dangerous assumption about the type of the token.\r\n        require(\r\n            ERC20Mintable(address(token())).mint(beneficiary, tokenAmount),\r\n                \"MintedCrowdsale: minting failed\"\r\n        );\r\n    }\r\n\r\n    constructor (uint256 _inRate, address payable _inWallet, IERC20 _inToken)  MyMintableCrowdSale(_inRate, _inWallet, _inToken) {\r\n        \r\n    }\r\n   \r\n}",
  "sourcePath": "D:\\Dev\\Estudos\\BlockchainDev\\TokenizationLabMintableToken\\contracts\\MintedCrowdSale.sol",
  "compiler": {
    "name": "solc",
    "version": "0.8.15+commit.e14f2714.Emscripten.clang"
  },
  "schemaVersion": "3.4.7",
  "updatedAt": "2022-06-23T02:46:07.170Z",
  "devdoc": {
    "details": "Extension of Crowdsale contract whose tokens are minted in each purchase. Token ownership should be transferred to MintedCrowdsale for minting.",
    "kind": "dev",
    "methods": {
      "buyTokens(address)": {
        "details": "low level token purchase ***DO NOT OVERRIDE*** This function has a non-reentrancy guard, so it shouldn't be called by another `nonReentrant` function.",
        "params": {
          "beneficiary": "Recipient of the token purchase"
        }
      },
      "rate()": {
        "returns": {
          "_0": "the number of token units a buyer gets per wei."
        }
      },
      "token()": {
        "returns": {
          "_0": "the token being sold."
        }
      },
      "wallet()": {
        "returns": {
          "_0": "the address where funds are collected."
        }
      },
      "weiRaised()": {
        "returns": {
          "_0": "the amount of wei raised."
        }
      }
    },
    "title": "MintedCrowdsale",
    "version": 1
  },
  "userdoc": {
    "events": {
      "TokensPurchased(address,address,uint256,uint256)": {
        "notice": "Event for token purchase logging"
      }
    },
    "kind": "user",
    "methods": {},
    "notice": "Copied from https://github.com/OpenZeppelin/openzeppelin-contracts/blob/v2.5.0/contracts/crowdsale/emission/MintedCrowdsale.sol",
    "version": 1
  }
}