{
  "contractName": "MyCrowdSale",
  "abi": [
    {
      "inputs": [
        {
          "internalType": "uint256",
          "name": "_inRate",
          "type": "uint256"
        },
        {
          "internalType": "address payable",
          "name": "_inWallet",
          "type": "address"
        },
        {
          "internalType": "contract IERC20",
          "name": "_inToken",
          "type": "address"
        }
      ],
      "stateMutability": "nonpayable",
      "type": "constructor"
    },
    {
      "anonymous": false,
      "inputs": [
        {
          "indexed": true,
          "internalType": "address",
          "name": "purchaser",
          "type": "address"
        },
        {
          "indexed": true,
          "internalType": "address",
          "name": "beneficiary",
          "type": "address"
        },
        {
          "indexed": false,
          "internalType": "uint256",
          "name": "value",
          "type": "uint256"
        },
        {
          "indexed": false,
          "internalType": "uint256",
          "name": "amount",
          "type": "uint256"
        }
      ],
      "name": "TokensPurchased",
      "type": "event"
    },
    {
      "stateMutability": "payable",
      "type": "fallback"
    },
    {
      "stateMutability": "payable",
      "type": "receive"
    },
    {
      "inputs": [],
      "name": "token",
      "outputs": [
        {
          "internalType": "contract IERC20",
          "name": "",
          "type": "address"
        }
      ],
      "stateMutability": "view",
      "type": "function"
    },
    {
      "inputs": [],
      "name": "wallet",
      "outputs": [
        {
          "internalType": "address payable",
          "name": "",
          "type": "address"
        }
      ],
      "stateMutability": "view",
      "type": "function"
    },
    {
      "inputs": [],
      "name": "rate",
      "outputs": [
        {
          "internalType": "uint256",
          "name": "",
          "type": "uint256"
        }
      ],
      "stateMutability": "view",
      "type": "function"
    },
    {
      "inputs": [],
      "name": "weiRaised",
      "outputs": [
        {
          "internalType": "uint256",
          "name": "",
          "type": "uint256"
        }
      ],
      "stateMutability": "view",
      "type": "function"
    },
    {
      "inputs": [
        {
          "internalType": "address",
          "name": "beneficiary",
          "type": "address"
        }
      ],
      "name": "buyTokens",
      "outputs": [],
      "stateMutability": "payable",
      "type": "function"
    },
    {
      "inputs": [],
      "name": "getRate",
      "outputs": [
        {
          "internalType": "uint256",
          "name": "",
          "type": "uint256"
        }
      ],
      "stateMutability": "view",
      "type": "function"
    }
  ],
  "bytecode": "0x60806040523480156200001157600080fd5b5060405162001469380380620014698339818101604052810190620000379190620002f9565b60016000819055506000831162000085576040517f08c379a00000000000000000000000000000000000000000000000000000000081526004016200007c90620003b6565b60405180910390fd5b600073ffffffffffffffffffffffffffffffffffffffff168273ffffffffffffffffffffffffffffffffffffffff1603620000f7576040517f08c379a0000000000000000000000000000000000000000000000000000000008152600401620000ee906200044e565b60405180910390fd5b600073ffffffffffffffffffffffffffffffffffffffff168173ffffffffffffffffffffffffffffffffffffffff160362000169576040517f08c379a00000000000000000000000000000000000000000000000000000000081526004016200016090620004e6565b60405180910390fd5b8260038190555081600260006101000a81548173ffffffffffffffffffffffffffffffffffffffff021916908373ffffffffffffffffffffffffffffffffffffffff16021790555080600160006101000a81548173ffffffffffffffffffffffffffffffffffffffff021916908373ffffffffffffffffffffffffffffffffffffffff16021790555050505062000508565b600080fd5b6000819050919050565b620002158162000200565b81146200022157600080fd5b50565b60008151905062000235816200020a565b92915050565b600073ffffffffffffffffffffffffffffffffffffffff82169050919050565b600062000268826200023b565b9050919050565b6200027a816200025b565b81146200028657600080fd5b50565b6000815190506200029a816200026f565b92915050565b6000620002ad826200023b565b9050919050565b6000620002c182620002a0565b9050919050565b620002d381620002b4565b8114620002df57600080fd5b50565b600081519050620002f381620002c8565b92915050565b600080600060608486031215620003155762000314620001fb565b5b6000620003258682870162000224565b9350506020620003388682870162000289565b92505060406200034b86828701620002e2565b9150509250925092565b600082825260208201905092915050565b7f4d7943726f776453616c653a2072617465206973203000000000000000000000600082015250565b60006200039e60168362000355565b9150620003ab8262000366565b602082019050919050565b60006020820190508181036000830152620003d1816200038f565b9050919050565b7f4d7943726f776453616c653a2077616c6c657420697320746865207a65726f2060008201527f6164647265737300000000000000000000000000000000000000000000000000602082015250565b60006200043660278362000355565b91506200044382620003d8565b604082019050919050565b60006020820190508181036000830152620004698162000427565b9050919050565b7f4d7943726f776453616c653a20746f6b656e20697320746865207a65726f206160008201527f6464726573730000000000000000000000000000000000000000000000000000602082015250565b6000620004ce60268362000355565b9150620004db8262000470565b604082019050919050565b600060208201905081810360008301526200050181620004bf565b9050919050565b610f5180620005186000396000f3fe6080604052600436106100595760003560e01c80632c4e722e146100825780634042b66f146100ad578063521eb273146100d8578063679aefce14610103578063ec8ac4d81461012e578063fc0c546a1461014a57610070565b366100705761006e610069610175565b61017d565b005b61008061007b610175565b61017d565b005b34801561008e57600080fd5b506100976102a2565b6040516100a49190610802565b60405180910390f35b3480156100b957600080fd5b506100c26102ac565b6040516100cf9190610802565b60405180910390f35b3480156100e457600080fd5b506100ed6102b6565b6040516100fa919061085e565b60405180910390f35b34801561010f57600080fd5b506101186102e0565b6040516101259190610802565b60405180910390f35b610148600480360381019061014391906108bc565b61017d565b005b34801561015657600080fd5b5061015f6102ea565b60405161016c9190610948565b60405180910390f35b600033905090565b6002600054036101c2576040517f08c379a00000000000000000000000000000000000000000000000000000000081526004016101b9906109c0565b60405180910390fd5b600260008190555060003490506101d98282610314565b60006101e4826103ca565b90506101fb826004546103e890919063ffffffff16565b60048190555061020b83826103fe565b8273ffffffffffffffffffffffffffffffffffffffff1661022a610175565b73ffffffffffffffffffffffffffffffffffffffff167f6faf93231a456e552dbc9961f58d9713ee4f2e69d15f1975b050ef0911053a7b84846040516102719291906109e0565b60405180910390a3610283838361040c565b61028b610410565b610295838361047b565b5050600160008190555050565b6000600354905090565b6000600454905090565b6000600260009054906101000a900473ffffffffffffffffffffffffffffffffffffffff16905090565b6000600354905090565b6000600160009054906101000a900473ffffffffffffffffffffffffffffffffffffffff16905090565b600073ffffffffffffffffffffffffffffffffffffffff168273ffffffffffffffffffffffffffffffffffffffff1603610383576040517f08c379a000000000000000000000000000000000000000000000000000000000815260040161037a90610a7b565b60405180910390fd5b600081036103c6576040517f08c379a00000000000000000000000000000000000000000000000000000000081526004016103bd90610ae7565b60405180910390fd5b5050565b60006103e16003548361047f90919063ffffffff16565b9050919050565b600081836103f69190610b36565b905092915050565b6104088282610495565b5050565b5050565b600260009054906101000a900473ffffffffffffffffffffffffffffffffffffffff1673ffffffffffffffffffffffffffffffffffffffff166108fc349081150290604051600060405180830381858888f19350505050158015610478573d6000803e3d6000fd5b50565b5050565b6000818361048d9190610b8c565b905092915050565b6104e28282600160009054906101000a900473ffffffffffffffffffffffffffffffffffffffff1673ffffffffffffffffffffffffffffffffffffffff166104e69092919063ffffffff16565b5050565b6105678363a9059cbb60e01b8484604051602401610505929190610bf5565b604051602081830303815290604052907bffffffffffffffffffffffffffffffffffffffffffffffffffffffff19166020820180517bffffffffffffffffffffffffffffffffffffffffffffffffffffffff838183161783525050505061056c565b505050565b60006105ce826040518060400160405280602081526020017f5361666545524332303a206c6f772d6c6576656c2063616c6c206661696c65648152508573ffffffffffffffffffffffffffffffffffffffff166106339092919063ffffffff16565b905060008151111561062e57808060200190518101906105ee9190610c56565b61062d576040517f08c379a000000000000000000000000000000000000000000000000000000000815260040161062490610cf5565b60405180910390fd5b5b505050565b6060610642848460008561064b565b90509392505050565b606082471015610690576040517f08c379a000000000000000000000000000000000000000000000000000000000815260040161068790610d87565b60405180910390fd5b6106998561075f565b6106d8576040517f08c379a00000000000000000000000000000000000000000000000000000000081526004016106cf90610df3565b60405180910390fd5b6000808673ffffffffffffffffffffffffffffffffffffffff1685876040516107019190610e8d565b60006040518083038185875af1925050503d806000811461073e576040519150601f19603f3d011682016040523d82523d6000602084013e610743565b606091505b5091509150610753828286610782565b92505050949350505050565b6000808273ffffffffffffffffffffffffffffffffffffffff163b119050919050565b60608315610792578290506107e2565b6000835111156107a55782518084602001fd5b816040517f08c379a00000000000000000000000000000000000000000000000000000000081526004016107d99190610ef9565b60405180910390fd5b9392505050565b6000819050919050565b6107fc816107e9565b82525050565b600060208201905061081760008301846107f3565b92915050565b600073ffffffffffffffffffffffffffffffffffffffff82169050919050565b60006108488261081d565b9050919050565b6108588161083d565b82525050565b6000602082019050610873600083018461084f565b92915050565b600080fd5b60006108898261081d565b9050919050565b6108998161087e565b81146108a457600080fd5b50565b6000813590506108b681610890565b92915050565b6000602082840312156108d2576108d1610879565b5b60006108e0848285016108a7565b91505092915050565b6000819050919050565b600061090e6109096109048461081d565b6108e9565b61081d565b9050919050565b6000610920826108f3565b9050919050565b600061093282610915565b9050919050565b61094281610927565b82525050565b600060208201905061095d6000830184610939565b92915050565b600082825260208201905092915050565b7f5265656e7472616e637947756172643a207265656e7472616e742063616c6c00600082015250565b60006109aa601f83610963565b91506109b582610974565b602082019050919050565b600060208201905081810360008301526109d98161099d565b9050919050565b60006040820190506109f560008301856107f3565b610a0260208301846107f3565b9392505050565b7f4d7943726f776453616c653a2062656e6566696369617279206973207468652060008201527f7a65726f20616464726573730000000000000000000000000000000000000000602082015250565b6000610a65602c83610963565b9150610a7082610a09565b604082019050919050565b60006020820190508181036000830152610a9481610a58565b9050919050565b7f4d7943726f776453616c653a20776569416d6f756e7420697320300000000000600082015250565b6000610ad1601b83610963565b9150610adc82610a9b565b602082019050919050565b60006020820190508181036000830152610b0081610ac4565b9050919050565b7f4e487b7100000000000000000000000000000000000000000000000000000000600052601160045260246000fd5b6000610b41826107e9565b9150610b4c836107e9565b9250827fffffffffffffffffffffffffffffffffffffffffffffffffffffffffffffffff03821115610b8157610b80610b07565b5b828201905092915050565b6000610b97826107e9565b9150610ba2836107e9565b9250817fffffffffffffffffffffffffffffffffffffffffffffffffffffffffffffffff0483118215151615610bdb57610bda610b07565b5b828202905092915050565b610bef8161087e565b82525050565b6000604082019050610c0a6000830185610be6565b610c1760208301846107f3565b9392505050565b60008115159050919050565b610c3381610c1e565b8114610c3e57600080fd5b50565b600081519050610c5081610c2a565b92915050565b600060208284031215610c6c57610c6b610879565b5b6000610c7a84828501610c41565b91505092915050565b7f5361666545524332303a204552433230206f7065726174696f6e20646964206e60008201527f6f74207375636365656400000000000000000000000000000000000000000000602082015250565b6000610cdf602a83610963565b9150610cea82610c83565b604082019050919050565b60006020820190508181036000830152610d0e81610cd2565b9050919050565b7f416464726573733a20696e73756666696369656e742062616c616e636520666f60008201527f722063616c6c0000000000000000000000000000000000000000000000000000602082015250565b6000610d71602683610963565b9150610d7c82610d15565b604082019050919050565b60006020820190508181036000830152610da081610d64565b9050919050565b7f416464726573733a2063616c6c20746f206e6f6e2d636f6e7472616374000000600082015250565b6000610ddd601d83610963565b9150610de882610da7565b602082019050919050565b60006020820190508181036000830152610e0c81610dd0565b9050919050565b600081519050919050565b600081905092915050565b60005b83811015610e47578082015181840152602081019050610e2c565b83811115610e56576000848401525b50505050565b6000610e6782610e13565b610e718185610e1e565b9350610e81818560208601610e29565b80840191505092915050565b6000610e998284610e5c565b915081905092915050565b600081519050919050565b6000601f19601f8301169050919050565b6000610ecb82610ea4565b610ed58185610963565b9350610ee5818560208601610e29565b610eee81610eaf565b840191505092915050565b60006020820190508181036000830152610f138184610ec0565b90509291505056fea2646970667358221220221020b7ba5a4fc40ef92e75b6490d78a9fe9b23976adaa1028246f04795403564736f6c634300080f0033",
  "immutableReferences": {},
  "source": "//SPDX-License-Identifier:MIT\r\n\r\npragma solidity ^0.8.0;\r\n\r\nimport \"@openzeppelin/contracts/utils/Context.sol\";\r\nimport \"@openzeppelin/contracts/token/ERC20/IERC20.sol\";\r\nimport \"@openzeppelin/contracts/utils/math/SafeMath.sol\";\r\nimport \"@openzeppelin/contracts/token/ERC20/utils/SafeERC20.sol\";\r\nimport \"@openzeppelin/contracts/security/ReentrancyGuard.sol\";\r\n\r\n/**\r\n * @title MyCrowdSale\r\n * @dev MyCrowdSale is a base contract for managing a token crowdsale,\r\n * allowing investors to purchase tokens with ether. This contract implements\r\n * such functionality in its most fundamental form and can be extended to provide additional\r\n * functionality and/or custom behavior.\r\n * The external interface represents the basic interface for purchasing tokens, and conforms\r\n * the base architecture for crowdsales. It is *not* intended to be modified / overridden.\r\n * The internal interface conforms the extensible and modifiable surface of crowdsales. Override\r\n * the methods to add functionality. Consider using 'super' where appropriate to concatenate\r\n * behavior.\r\n */\r\ncontract MyCrowdSale is Context, ReentrancyGuard {\r\n    using SafeMath for uint256;\r\n    using SafeERC20 for IERC20;\r\n\r\n    // The token being sold\r\n    IERC20 private _token;\r\n\r\n    // Address where funds are collected\r\n    address payable private _wallet;\r\n\r\n    // How many token units a buyer gets per wei.\r\n    // The rate is the conversion between wei and the smallest and indivisible token unit.\r\n    // So, if you are using a rate of 1 with a ERC20Detailed token with 3 decimals called TOK\r\n    // 1 wei will give you 1 unit, or 0.001 TOK.\r\n    uint256 private _rate;\r\n\r\n    // Amount of wei raised\r\n    uint256 private _weiRaised;\r\n\r\n    /**\r\n     * Event for token purchase logging\r\n     * @param purchaser who paid for the tokens\r\n     * @param beneficiary who got the tokens\r\n     * @param value weis paid for purchase\r\n     * @param amount amount of tokens purchased\r\n     */\r\n    event TokensPurchased(address indexed purchaser, address indexed beneficiary, uint256 value, uint256 amount);\r\n\r\n    /**\r\n     * @param _inRate Number of token units a buyer gets per wei\r\n     * @dev The rate is the conversion between wei and the smallest and indivisible\r\n     * token unit. So, if you are using a rate of 1 with a ERC20Detailed token\r\n     * with 3 decimals called TOK, 1 wei will give you 1 unit, or 0.001 TOK.\r\n     * @param _inWallet Address where collected funds will be forwarded to\r\n     * @param _inToken Address of the token being sold\r\n     */\r\n    constructor (uint256 _inRate, address payable _inWallet, IERC20 _inToken)  {\r\n        require(_inRate > 0, \"MyCrowdSale: rate is 0\");\r\n        require(_inWallet != address(0), \"MyCrowdSale: wallet is the zero address\");\r\n        require(address(_inToken) != address(0), \"MyCrowdSale: token is the zero address\");\r\n\r\n        _rate = _inRate;\r\n        _wallet = _inWallet;\r\n        _token = _inToken;\r\n    }\r\n\r\n    /**\r\n     * @dev fallback function ***DO NOT OVERRIDE***\r\n     * Note that other contracts will transfer funds with a base gas stipend\r\n     * of 2300, which is not enough to call buyTokens. Consider calling\r\n     * buyTokens directly when purchasing tokens from a contract.\r\n     */\r\n    fallback() external payable {\r\n        buyTokens(_msgSender());\r\n    }\r\n\r\n    receive() external payable {\r\n        buyTokens(_msgSender());\r\n    }\r\n\r\n    /**\r\n     * @return the token being sold.\r\n     */\r\n    function token() public view returns (IERC20) {\r\n        return _token;\r\n    }\r\n\r\n    /**\r\n     * @return the address where funds are collected.\r\n     */\r\n    function wallet() public view returns (address payable) {\r\n        return _wallet;\r\n    }\r\n\r\n    /**\r\n     * @return the number of token units a buyer gets per wei.\r\n     */\r\n    function rate() public view returns (uint256) {\r\n        return _rate;\r\n    }\r\n\r\n    /**\r\n     * @return the amount of wei raised.\r\n     */\r\n    function weiRaised() public view returns (uint256) {\r\n        return _weiRaised;\r\n    }\r\n\r\n    /**\r\n     * @dev low level token purchase ***DO NOT OVERRIDE***\r\n     * This function has a non-reentrancy guard, so it shouldn't be called by\r\n     * another `nonReentrant` function.\r\n     * @param beneficiary Recipient of the token purchase\r\n     */\r\n    function buyTokens(address beneficiary) public nonReentrant payable {\r\n        uint256 weiAmount = msg.value;\r\n        _preValidatePurchase(beneficiary, weiAmount);\r\n\r\n        // calculate token amount to be created\r\n        uint256 tokens = _getTokenAmount(weiAmount);\r\n\r\n        // update state\r\n        _weiRaised = _weiRaised.add(weiAmount);\r\n\r\n        _processPurchase(beneficiary, tokens);\r\n        emit TokensPurchased(_msgSender(), beneficiary, weiAmount, tokens);\r\n\r\n        _updatePurchasingState(beneficiary, weiAmount);\r\n\r\n        _forwardFunds();\r\n        _postValidatePurchase(beneficiary, weiAmount);\r\n    }\r\n\r\n    /**\r\n     * @dev Validation of an incoming purchase. Use require statements to revert state when conditions are not met.\r\n     * Use `super` in contracts that inherit from MyCrowdSale to extend their validations.\r\n     * Example from CappedCrowdsale.sol's _preValidatePurchase method:\r\n     *     super._preValidatePurchase(beneficiary, weiAmount);\r\n     *     require(weiRaised().add(weiAmount) <= cap);\r\n     * @param beneficiary Address performing the token purchase\r\n     * @param weiAmount Value in wei involved in the purchase\r\n     */\r\n    function _preValidatePurchase(address beneficiary, uint256 weiAmount) internal view virtual {\r\n        require(beneficiary != address(0), \"MyCrowdSale: beneficiary is the zero address\");\r\n        require(weiAmount != 0, \"MyCrowdSale: weiAmount is 0\");\r\n        this; // silence state mutability warning without generating bytecode - see https://github.com/ethereum/solidity/issues/2691\r\n    }\r\n\r\n    /**\r\n     * @dev Validation of an executed purchase. Observe state and use revert statements to undo rollback when valid\r\n     * conditions are not met.\r\n     * @param beneficiary Address performing the token purchase\r\n     * @param weiAmount Value in wei involved in the purchase\r\n     */\r\n    function _postValidatePurchase(address beneficiary, uint256 weiAmount) internal view virtual {\r\n        // solhint-disable-previous-line no-empty-blocks\r\n    }\r\n\r\n    /**\r\n     * @dev Source of tokens. Override this method to modify the way in which the crowdsale ultimately gets and sends\r\n     * its tokens.\r\n     * @param beneficiary Address performing the token purchase\r\n     * @param tokenAmount Number of tokens to be emitted\r\n     */\r\n    function _deliverTokens(address beneficiary, uint256 tokenAmount) internal virtual{\r\n        _token.safeTransfer(beneficiary, tokenAmount);\r\n    }\r\n\r\n    /**\r\n     * @dev Executed when a purchase has been validated and is ready to be executed. Doesn't necessarily emit/send\r\n     * tokens.\r\n     * @param beneficiary Address receiving the tokens\r\n     * @param tokenAmount Number of tokens to be purchased\r\n     */\r\n    function _processPurchase(address beneficiary, uint256 tokenAmount) internal virtual{\r\n        _deliverTokens(beneficiary, tokenAmount);\r\n    }\r\n\r\n    /**\r\n     * @dev Override for extensions that require an internal state to check for validity (current user contributions,\r\n     * etc.)\r\n     * @param beneficiary Address receiving the tokens\r\n     * @param weiAmount Value in wei involved in the purchase\r\n     */\r\n    function _updatePurchasingState(address beneficiary, uint256 weiAmount) internal virtual{\r\n        // solhint-disable-previous-line no-empty-blocks\r\n    }\r\n\r\n    /**\r\n     * @dev Override to extend the way in which ether is converted to tokens.\r\n     * @param weiAmount Value in wei to be converted into tokens\r\n     * @return Number of tokens that can be purchased with the specified _weiAmount\r\n     */\r\n    function _getTokenAmount(uint256 weiAmount) internal view returns (uint256) {\r\n        return weiAmount.mul(_rate);\r\n    }\r\n\r\n    /**\r\n     * @dev Determines how ETH is stored/forwarded on purchases.\r\n     */\r\n    function _forwardFunds() internal virtual {\r\n        _wallet.transfer(msg.value);\r\n    }\r\n\r\n    function getRate() public view returns(uint256){\r\n        return _rate;\r\n    }\r\n}",
  "sourcePath": "D:\\Dev\\Estudos\\BlockchainDev\\UdemyCourseLab3-Tokenization\\contracts\\MyCrowdSale.sol",
  "compiler": {
    "name": "solc",
    "version": "0.8.15+commit.e14f2714.Emscripten.clang"
  },
  "schemaVersion": "3.4.7",
  "updatedAt": "2022-06-16T17:33:19.615Z",
  "devdoc": {
    "details": "MyCrowdSale is a base contract for managing a token crowdsale, allowing investors to purchase tokens with ether. This contract implements such functionality in its most fundamental form and can be extended to provide additional functionality and/or custom behavior. The external interface represents the basic interface for purchasing tokens, and conforms the base architecture for crowdsales. It is *not* intended to be modified / overridden. The internal interface conforms the extensible and modifiable surface of crowdsales. Override the methods to add functionality. Consider using 'super' where appropriate to concatenate behavior.",
    "events": {
      "TokensPurchased(address,address,uint256,uint256)": {
        "params": {
          "amount": "amount of tokens purchased",
          "beneficiary": "who got the tokens",
          "purchaser": "who paid for the tokens",
          "value": "weis paid for purchase"
        }
      }
    },
    "kind": "dev",
    "methods": {
      "buyTokens(address)": {
        "details": "low level token purchase ***DO NOT OVERRIDE*** This function has a non-reentrancy guard, so it shouldn't be called by another `nonReentrant` function.",
        "params": {
          "beneficiary": "Recipient of the token purchase"
        }
      },
      "constructor": {
        "details": "The rate is the conversion between wei and the smallest and indivisible token unit. So, if you are using a rate of 1 with a ERC20Detailed token with 3 decimals called TOK, 1 wei will give you 1 unit, or 0.001 TOK.",
        "params": {
          "_inRate": "Number of token units a buyer gets per wei",
          "_inToken": "Address of the token being sold",
          "_inWallet": "Address where collected funds will be forwarded to"
        }
      },
      "rate()": {
        "returns": {
          "_0": "the number of token units a buyer gets per wei."
        }
      },
      "token()": {
        "returns": {
          "_0": "the token being sold."
        }
      },
      "wallet()": {
        "returns": {
          "_0": "the address where funds are collected."
        }
      },
      "weiRaised()": {
        "returns": {
          "_0": "the amount of wei raised."
        }
      }
    },
    "title": "MyCrowdSale",
    "version": 1
  },
  "userdoc": {
    "events": {
      "TokensPurchased(address,address,uint256,uint256)": {
        "notice": "Event for token purchase logging"
      }
    },
    "kind": "user",
    "methods": {},
    "version": 1
  }
}