{
  "contractName": "MyMintableTokenSale",
  "abi": [
    {
      "inputs": [
        {
          "internalType": "uint256",
          "name": "rate",
          "type": "uint256"
        },
        {
          "internalType": "address payable",
          "name": "wallet",
          "type": "address"
        },
        {
          "internalType": "contract IERC20",
          "name": "token",
          "type": "address"
        },
        {
          "internalType": "contract KycContract",
          "name": "_kyc",
          "type": "address"
        }
      ],
      "stateMutability": "nonpayable",
      "type": "constructor"
    },
    {
      "anonymous": false,
      "inputs": [
        {
          "indexed": true,
          "internalType": "address",
          "name": "purchaser",
          "type": "address"
        },
        {
          "indexed": true,
          "internalType": "address",
          "name": "beneficiary",
          "type": "address"
        },
        {
          "indexed": false,
          "internalType": "uint256",
          "name": "value",
          "type": "uint256"
        },
        {
          "indexed": false,
          "internalType": "uint256",
          "name": "amount",
          "type": "uint256"
        }
      ],
      "name": "TokensPurchased",
      "type": "event"
    },
    {
      "stateMutability": "payable",
      "type": "fallback",
      "payable": true
    },
    {
      "inputs": [
        {
          "internalType": "address",
          "name": "beneficiary",
          "type": "address"
        }
      ],
      "name": "buyTokens",
      "outputs": [],
      "stateMutability": "payable",
      "type": "function",
      "payable": true
    },
    {
      "inputs": [],
      "name": "getRate",
      "outputs": [
        {
          "internalType": "uint256",
          "name": "",
          "type": "uint256"
        }
      ],
      "stateMutability": "view",
      "type": "function",
      "constant": true
    },
    {
      "inputs": [],
      "name": "owner",
      "outputs": [
        {
          "internalType": "address",
          "name": "",
          "type": "address"
        }
      ],
      "stateMutability": "view",
      "type": "function",
      "constant": true
    },
    {
      "inputs": [],
      "name": "rate",
      "outputs": [
        {
          "internalType": "uint256",
          "name": "",
          "type": "uint256"
        }
      ],
      "stateMutability": "view",
      "type": "function",
      "constant": true
    },
    {
      "inputs": [],
      "name": "token",
      "outputs": [
        {
          "internalType": "contract IERC20",
          "name": "",
          "type": "address"
        }
      ],
      "stateMutability": "view",
      "type": "function",
      "constant": true
    },
    {
      "inputs": [],
      "name": "wallet",
      "outputs": [
        {
          "internalType": "address payable",
          "name": "",
          "type": "address"
        }
      ],
      "stateMutability": "view",
      "type": "function",
      "constant": true
    },
    {
      "inputs": [],
      "name": "weiRaised",
      "outputs": [
        {
          "internalType": "uint256",
          "name": "",
          "type": "uint256"
        }
      ],
      "stateMutability": "view",
      "type": "function",
      "constant": true
    },
    {
      "stateMutability": "payable",
      "type": "receive",
      "payable": true
    }
  ],
  "bytecode": "0x60806040523480156200001157600080fd5b506040516200111c3803806200111c8339818101604052810190620000379190620003c7565b83838360016000819055506000831162000088576040517f08c379a00000000000000000000000000000000000000000000000000000000081526004016200007f906200049a565b60405180910390fd5b600073ffffffffffffffffffffffffffffffffffffffff168273ffffffffffffffffffffffffffffffffffffffff1603620000fa576040517f08c379a0000000000000000000000000000000000000000000000000000000008152600401620000f19062000532565b60405180910390fd5b600073ffffffffffffffffffffffffffffffffffffffff168173ffffffffffffffffffffffffffffffffffffffff16036200016c576040517f08c379a00000000000000000000000000000000000000000000000000000000081526004016200016390620005ca565b60405180910390fd5b8260038190555081600260006101000a81548173ffffffffffffffffffffffffffffffffffffffff021916908373ffffffffffffffffffffffffffffffffffffffff16021790555080600160006101000a81548173ffffffffffffffffffffffffffffffffffffffff021916908373ffffffffffffffffffffffffffffffffffffffff16021790555050505080600560006101000a81548173ffffffffffffffffffffffffffffffffffffffff021916908373ffffffffffffffffffffffffffffffffffffffff16021790555033600660006101000a81548173ffffffffffffffffffffffffffffffffffffffff021916908373ffffffffffffffffffffffffffffffffffffffff16021790555050505050620005ec565b600080fd5b6000819050919050565b6200029e8162000289565b8114620002aa57600080fd5b50565b600081519050620002be8162000293565b92915050565b600073ffffffffffffffffffffffffffffffffffffffff82169050919050565b6000620002f182620002c4565b9050919050565b6200030381620002e4565b81146200030f57600080fd5b50565b6000815190506200032381620002f8565b92915050565b60006200033682620002c4565b9050919050565b60006200034a8262000329565b9050919050565b6200035c816200033d565b81146200036857600080fd5b50565b6000815190506200037c8162000351565b92915050565b60006200038f8262000329565b9050919050565b620003a18162000382565b8114620003ad57600080fd5b50565b600081519050620003c18162000396565b92915050565b60008060008060808587031215620003e457620003e362000284565b5b6000620003f487828801620002ad565b9450506020620004078782880162000312565b93505060406200041a878288016200036b565b92505060606200042d87828801620003b0565b91505092959194509250565b600082825260208201905092915050565b7f4d7943726f776453616c653a2072617465206973203000000000000000000000600082015250565b60006200048260168362000439565b91506200048f826200044a565b602082019050919050565b60006020820190508181036000830152620004b58162000473565b9050919050565b7f4d7943726f776453616c653a2077616c6c657420697320746865207a65726f2060008201527f6164647265737300000000000000000000000000000000000000000000000000602082015250565b60006200051a60278362000439565b91506200052782620004bc565b604082019050919050565b600060208201905081810360008301526200054d816200050b565b9050919050565b7f4d7943726f776453616c653a20746f6b656e20697320746865207a65726f206160008201527f6464726573730000000000000000000000000000000000000000000000000000602082015250565b6000620005b260268362000439565b9150620005bf8262000554565b604082019050919050565b60006020820190508181036000830152620005e581620005a3565b9050919050565b610b2080620005fc6000396000f3fe6080604052600436106100745760003560e01c8063679aefce1161004e578063679aefce1461011e5780638da5cb5b14610149578063ec8ac4d814610174578063fc0c546a146101905761008b565b80632c4e722e1461009d5780634042b66f146100c8578063521eb273146100f35761008b565b3661008b576100896100846101bb565b6101c3565b005b61009b6100966101bb565b6101c3565b005b3480156100a957600080fd5b506100b26102e8565b6040516100bf91906105e2565b60405180910390f35b3480156100d457600080fd5b506100dd6102f2565b6040516100ea91906105e2565b60405180910390f35b3480156100ff57600080fd5b506101086102fc565b604051610115919061063e565b60405180910390f35b34801561012a57600080fd5b50610133610326565b60405161014091906105e2565b60405180910390f35b34801561015557600080fd5b5061015e610330565b60405161016b919061067a565b60405180910390f35b61018e600480360381019061018991906106c6565b6101c3565b005b34801561019c57600080fd5b506101a5610356565b6040516101b29190610752565b60405180910390f35b600033905090565b600260005403610208576040517f08c379a00000000000000000000000000000000000000000000000000000000081526004016101ff906107ca565b60405180910390fd5b6002600081905550600034905061021f8282610380565b600061022a82610436565b90506102418260045461045490919063ffffffff16565b600481905550610251838261046a565b8273ffffffffffffffffffffffffffffffffffffffff166102706101bb565b73ffffffffffffffffffffffffffffffffffffffff167f6faf93231a456e552dbc9961f58d9713ee4f2e69d15f1975b050ef0911053a7b84846040516102b79291906107ea565b60405180910390a36102c98383610478565b6102d161047c565b6102db83836104e7565b5050600160008190555050565b6000600354905090565b6000600454905090565b6000600260009054906101000a900473ffffffffffffffffffffffffffffffffffffffff16905090565b6000600354905090565b600660009054906101000a900473ffffffffffffffffffffffffffffffffffffffff1681565b6000600160009054906101000a900473ffffffffffffffffffffffffffffffffffffffff16905090565b600073ffffffffffffffffffffffffffffffffffffffff168273ffffffffffffffffffffffffffffffffffffffff16036103ef576040517f08c379a00000000000000000000000000000000000000000000000000000000081526004016103e690610885565b60405180910390fd5b60008103610432576040517f08c379a0000000000000000000000000000000000000000000000000000000008152600401610429906108f1565b60405180910390fd5b5050565b600061044d600354836104eb90919063ffffffff16565b9050919050565b600081836104629190610940565b905092915050565b6104748282610501565b5050565b5050565b600260009054906101000a900473ffffffffffffffffffffffffffffffffffffffff1673ffffffffffffffffffffffffffffffffffffffff166108fc349081150290604051600060405180830381858888f193505050501580156104e4573d6000803e3d6000fd5b50565b5050565b600081836104f99190610996565b905092915050565b610509610356565b73ffffffffffffffffffffffffffffffffffffffff166340c10f1983836040518363ffffffff1660e01b81526004016105439291906109f0565b6020604051808303816000875af1158015610562573d6000803e3d6000fd5b505050506040513d601f19601f820116820180604052508101906105869190610a51565b6105c5576040517f08c379a00000000000000000000000000000000000000000000000000000000081526004016105bc90610aca565b60405180910390fd5b5050565b6000819050919050565b6105dc816105c9565b82525050565b60006020820190506105f760008301846105d3565b92915050565b600073ffffffffffffffffffffffffffffffffffffffff82169050919050565b6000610628826105fd565b9050919050565b6106388161061d565b82525050565b6000602082019050610653600083018461062f565b92915050565b6000610664826105fd565b9050919050565b61067481610659565b82525050565b600060208201905061068f600083018461066b565b92915050565b600080fd5b6106a381610659565b81146106ae57600080fd5b50565b6000813590506106c08161069a565b92915050565b6000602082840312156106dc576106db610695565b5b60006106ea848285016106b1565b91505092915050565b6000819050919050565b600061071861071361070e846105fd565b6106f3565b6105fd565b9050919050565b600061072a826106fd565b9050919050565b600061073c8261071f565b9050919050565b61074c81610731565b82525050565b60006020820190506107676000830184610743565b92915050565b600082825260208201905092915050565b7f5265656e7472616e637947756172643a207265656e7472616e742063616c6c00600082015250565b60006107b4601f8361076d565b91506107bf8261077e565b602082019050919050565b600060208201905081810360008301526107e3816107a7565b9050919050565b60006040820190506107ff60008301856105d3565b61080c60208301846105d3565b9392505050565b7f4d7943726f776453616c653a2062656e6566696369617279206973207468652060008201527f7a65726f20616464726573730000000000000000000000000000000000000000602082015250565b600061086f602c8361076d565b915061087a82610813565b604082019050919050565b6000602082019050818103600083015261089e81610862565b9050919050565b7f4d7943726f776453616c653a20776569416d6f756e7420697320300000000000600082015250565b60006108db601b8361076d565b91506108e6826108a5565b602082019050919050565b6000602082019050818103600083015261090a816108ce565b9050919050565b7f4e487b7100000000000000000000000000000000000000000000000000000000600052601160045260246000fd5b600061094b826105c9565b9150610956836105c9565b9250827fffffffffffffffffffffffffffffffffffffffffffffffffffffffffffffffff0382111561098b5761098a610911565b5b828201905092915050565b60006109a1826105c9565b91506109ac836105c9565b9250817fffffffffffffffffffffffffffffffffffffffffffffffffffffffffffffffff04831182151516156109e5576109e4610911565b5b828202905092915050565b6000604082019050610a05600083018561066b565b610a1260208301846105d3565b9392505050565b60008115159050919050565b610a2e81610a19565b8114610a3957600080fd5b50565b600081519050610a4b81610a25565b92915050565b600060208284031215610a6757610a66610695565b5b6000610a7584828501610a3c565b91505092915050565b7f4d696e74656443726f776473616c653a206d696e74696e67206661696c656400600082015250565b6000610ab4601f8361076d565b9150610abf82610a7e565b602082019050919050565b60006020820190508181036000830152610ae381610aa7565b905091905056fea2646970667358221220252e151acb4df78bdae2e590c71490de133086665eba57c57f261a4ca2872af864736f6c634300080f0033",
  "immutableReferences": {},
  "source": "//SPDX-License-Identifier: MIT\r\npragma solidity ^0.8.1;\r\n\r\nimport \"./MintedCrowdsale.sol\";\r\nimport \"./KycContract.sol\";\r\n\r\n/*\r\n * Openzeppelin version \r\n */\r\ncontract MyMintableTokenSale is MintedCrowdsale {\r\n    KycContract kyc;\r\n    address public owner;\r\n    constructor(\r\n        uint256 rate,    // rate in TKNbits\r\n        address payable wallet,\r\n        IERC20 token,\r\n        KycContract _kyc\r\n    )\r\n        MintedCrowdsale()\r\n        MyCrowdSale(rate, wallet, token)\r\n    {\r\n        kyc = _kyc;\r\n        owner = msg.sender;\r\n    }\r\n}",
  "sourcePath": "D:\\Dev\\Estudos\\BlockchainDev\\UdemyCourseLab3-Tokenization\\contracts\\MyMintableTokenSale.sol",
  "compiler": {
    "name": "solc",
    "version": "0.8.15+commit.e14f2714.Emscripten.clang"
  },
  "schemaVersion": "3.4.7",
  "updatedAt": "2022-06-21T19:38:21.602Z",
  "networkType": "ethereum",
  "devdoc": {
    "kind": "dev",
    "methods": {
      "buyTokens(address)": {
        "details": "low level token purchase ***DO NOT OVERRIDE*** This function has a non-reentrancy guard, so it shouldn't be called by another `nonReentrant` function.",
        "params": {
          "beneficiary": "Recipient of the token purchase"
        }
      },
      "rate()": {
        "returns": {
          "_0": "the number of token units a buyer gets per wei."
        }
      },
      "token()": {
        "returns": {
          "_0": "the token being sold."
        }
      },
      "wallet()": {
        "returns": {
          "_0": "the address where funds are collected."
        }
      },
      "weiRaised()": {
        "returns": {
          "_0": "the amount of wei raised."
        }
      }
    },
    "version": 1
  },
  "userdoc": {
    "events": {
      "TokensPurchased(address,address,uint256,uint256)": {
        "notice": "Event for token purchase logging"
      }
    },
    "kind": "user",
    "methods": {},
    "version": 1
  }
}