{
  "contractName": "MyTokenSale",
  "abi": [
    {
      "inputs": [
        {
          "internalType": "uint256",
          "name": "rate",
          "type": "uint256"
        },
        {
          "internalType": "address payable",
          "name": "wallet",
          "type": "address"
        },
        {
          "internalType": "contract IERC20",
          "name": "token",
          "type": "address"
        },
        {
          "internalType": "contract KycContract",
          "name": "_kyc",
          "type": "address"
        }
      ],
      "stateMutability": "nonpayable",
      "type": "constructor"
    },
    {
      "anonymous": false,
      "inputs": [
        {
          "indexed": true,
          "internalType": "address",
          "name": "purchaser",
          "type": "address"
        },
        {
          "indexed": true,
          "internalType": "address",
          "name": "beneficiary",
          "type": "address"
        },
        {
          "indexed": false,
          "internalType": "uint256",
          "name": "value",
          "type": "uint256"
        },
        {
          "indexed": false,
          "internalType": "uint256",
          "name": "amount",
          "type": "uint256"
        }
      ],
      "name": "TokensPurchased",
      "type": "event"
    },
    {
      "stateMutability": "payable",
      "type": "fallback",
      "payable": true
    },
    {
      "inputs": [
        {
          "internalType": "address",
          "name": "beneficiary",
          "type": "address"
        }
      ],
      "name": "buyTokens",
      "outputs": [],
      "stateMutability": "payable",
      "type": "function",
      "payable": true
    },
    {
      "inputs": [],
      "name": "getRate",
      "outputs": [
        {
          "internalType": "uint256",
          "name": "",
          "type": "uint256"
        }
      ],
      "stateMutability": "view",
      "type": "function",
      "constant": true
    },
    {
      "inputs": [],
      "name": "owner",
      "outputs": [
        {
          "internalType": "address",
          "name": "",
          "type": "address"
        }
      ],
      "stateMutability": "view",
      "type": "function",
      "constant": true
    },
    {
      "inputs": [],
      "name": "rate",
      "outputs": [
        {
          "internalType": "uint256",
          "name": "",
          "type": "uint256"
        }
      ],
      "stateMutability": "view",
      "type": "function",
      "constant": true
    },
    {
      "inputs": [],
      "name": "token",
      "outputs": [
        {
          "internalType": "contract IERC20",
          "name": "",
          "type": "address"
        }
      ],
      "stateMutability": "view",
      "type": "function",
      "constant": true
    },
    {
      "inputs": [],
      "name": "wallet",
      "outputs": [
        {
          "internalType": "address payable",
          "name": "",
          "type": "address"
        }
      ],
      "stateMutability": "view",
      "type": "function",
      "constant": true
    },
    {
      "inputs": [],
      "name": "weiRaised",
      "outputs": [
        {
          "internalType": "uint256",
          "name": "",
          "type": "uint256"
        }
      ],
      "stateMutability": "view",
      "type": "function",
      "constant": true
    },
    {
      "stateMutability": "payable",
      "type": "receive",
      "payable": true
    }
  ],
  "bytecode": "0x60806040523480156200001157600080fd5b5060405162001729380380620017298339818101604052810190620000379190620003c7565b83838360016000819055506000831162000088576040517f08c379a00000000000000000000000000000000000000000000000000000000081526004016200007f906200049a565b60405180910390fd5b600073ffffffffffffffffffffffffffffffffffffffff168273ffffffffffffffffffffffffffffffffffffffff1603620000fa576040517f08c379a0000000000000000000000000000000000000000000000000000000008152600401620000f19062000532565b60405180910390fd5b600073ffffffffffffffffffffffffffffffffffffffff168173ffffffffffffffffffffffffffffffffffffffff16036200016c576040517f08c379a00000000000000000000000000000000000000000000000000000000081526004016200016390620005ca565b60405180910390fd5b8260038190555081600260006101000a81548173ffffffffffffffffffffffffffffffffffffffff021916908373ffffffffffffffffffffffffffffffffffffffff16021790555080600160006101000a81548173ffffffffffffffffffffffffffffffffffffffff021916908373ffffffffffffffffffffffffffffffffffffffff16021790555050505080600560006101000a81548173ffffffffffffffffffffffffffffffffffffffff021916908373ffffffffffffffffffffffffffffffffffffffff16021790555033600660006101000a81548173ffffffffffffffffffffffffffffffffffffffff021916908373ffffffffffffffffffffffffffffffffffffffff16021790555050505050620005ec565b600080fd5b6000819050919050565b6200029e8162000289565b8114620002aa57600080fd5b50565b600081519050620002be8162000293565b92915050565b600073ffffffffffffffffffffffffffffffffffffffff82169050919050565b6000620002f182620002c4565b9050919050565b6200030381620002e4565b81146200030f57600080fd5b50565b6000815190506200032381620002f8565b92915050565b60006200033682620002c4565b9050919050565b60006200034a8262000329565b9050919050565b6200035c816200033d565b81146200036857600080fd5b50565b6000815190506200037c8162000351565b92915050565b60006200038f8262000329565b9050919050565b620003a18162000382565b8114620003ad57600080fd5b50565b600081519050620003c18162000396565b92915050565b60008060008060808587031215620003e457620003e362000284565b5b6000620003f487828801620002ad565b9450506020620004078782880162000312565b93505060406200041a878288016200036b565b92505060606200042d87828801620003b0565b91505092959194509250565b600082825260208201905092915050565b7f4d7943726f776453616c653a2072617465206973203000000000000000000000600082015250565b60006200048260168362000439565b91506200048f826200044a565b602082019050919050565b60006020820190508181036000830152620004b58162000473565b9050919050565b7f4d7943726f776453616c653a2077616c6c657420697320746865207a65726f2060008201527f6164647265737300000000000000000000000000000000000000000000000000602082015250565b60006200051a60278362000439565b91506200052782620004bc565b604082019050919050565b600060208201905081810360008301526200054d816200050b565b9050919050565b7f4d7943726f776453616c653a20746f6b656e20697320746865207a65726f206160008201527f6464726573730000000000000000000000000000000000000000000000000000602082015250565b6000620005b260268362000439565b9150620005bf8262000554565b604082019050919050565b60006020820190508181036000830152620005e581620005a3565b9050919050565b61112d80620005fc6000396000f3fe6080604052600436106100745760003560e01c8063679aefce1161004e578063679aefce1461011e5780638da5cb5b14610149578063ec8ac4d814610174578063fc0c546a146101905761008b565b80632c4e722e1461009d5780634042b66f146100c8578063521eb273146100f35761008b565b3661008b576100896100846101bb565b6101c3565b005b61009b6100966101bb565b6101c3565b005b3480156100a957600080fd5b506100b26102e8565b6040516100bf9190610957565b60405180910390f35b3480156100d457600080fd5b506100dd6102f2565b6040516100ea9190610957565b60405180910390f35b3480156100ff57600080fd5b506101086102fc565b60405161011591906109b3565b60405180910390f35b34801561012a57600080fd5b50610133610326565b6040516101409190610957565b60405180910390f35b34801561015557600080fd5b5061015e610330565b60405161016b91906109ef565b60405180910390f35b61018e60048036038101906101899190610a3b565b6101c3565b005b34801561019c57600080fd5b506101a5610356565b6040516101b29190610ac7565b60405180910390f35b600033905090565b600260005403610208576040517f08c379a00000000000000000000000000000000000000000000000000000000081526004016101ff90610b3f565b60405180910390fd5b6002600081905550600034905061021f8282610380565b600061022a82610469565b90506102418260045461048790919063ffffffff16565b600481905550610251838261049d565b8273ffffffffffffffffffffffffffffffffffffffff166102706101bb565b73ffffffffffffffffffffffffffffffffffffffff167f6faf93231a456e552dbc9961f58d9713ee4f2e69d15f1975b050ef0911053a7b84846040516102b7929190610b5f565b60405180910390a36102c983836104ab565b6102d16104af565b6102db838361051a565b5050600160008190555050565b6000600354905090565b6000600454905090565b6000600260009054906101000a900473ffffffffffffffffffffffffffffffffffffffff16905090565b6000600354905090565b600660009054906101000a900473ffffffffffffffffffffffffffffffffffffffff1681565b6000600160009054906101000a900473ffffffffffffffffffffffffffffffffffffffff16905090565b61038a828261051e565b600560009054906101000a900473ffffffffffffffffffffffffffffffffffffffff1673ffffffffffffffffffffffffffffffffffffffff1663a21f580e336040518263ffffffff1660e01b81526004016103e591906109ef565b602060405180830381865afa158015610402573d6000803e3d6000fd5b505050506040513d601f19601f820116820180604052508101906104269190610bc0565b610465576040517f08c379a000000000000000000000000000000000000000000000000000000000815260040161045c90610c39565b60405180910390fd5b5050565b6000610480600354836105d490919063ffffffff16565b9050919050565b600081836104959190610c88565b905092915050565b6104a782826105ea565b5050565b5050565b600260009054906101000a900473ffffffffffffffffffffffffffffffffffffffff1673ffffffffffffffffffffffffffffffffffffffff166108fc349081150290604051600060405180830381858888f19350505050158015610517573d6000803e3d6000fd5b50565b5050565b600073ffffffffffffffffffffffffffffffffffffffff168273ffffffffffffffffffffffffffffffffffffffff160361058d576040517f08c379a000000000000000000000000000000000000000000000000000000000815260040161058490610d50565b60405180910390fd5b600081036105d0576040517f08c379a00000000000000000000000000000000000000000000000000000000081526004016105c790610dbc565b60405180910390fd5b5050565b600081836105e29190610ddc565b905092915050565b6106378282600160009054906101000a900473ffffffffffffffffffffffffffffffffffffffff1673ffffffffffffffffffffffffffffffffffffffff1661063b9092919063ffffffff16565b5050565b6106bc8363a9059cbb60e01b848460405160240161065a929190610e36565b604051602081830303815290604052907bffffffffffffffffffffffffffffffffffffffffffffffffffffffff19166020820180517bffffffffffffffffffffffffffffffffffffffffffffffffffffffff83818316178352505050506106c1565b505050565b6000610723826040518060400160405280602081526020017f5361666545524332303a206c6f772d6c6576656c2063616c6c206661696c65648152508573ffffffffffffffffffffffffffffffffffffffff166107889092919063ffffffff16565b905060008151111561078357808060200190518101906107439190610bc0565b610782576040517f08c379a000000000000000000000000000000000000000000000000000000000815260040161077990610ed1565b60405180910390fd5b5b505050565b606061079784846000856107a0565b90509392505050565b6060824710156107e5576040517f08c379a00000000000000000000000000000000000000000000000000000000081526004016107dc90610f63565b60405180910390fd5b6107ee856108b4565b61082d576040517f08c379a000000000000000000000000000000000000000000000000000000000815260040161082490610fcf565b60405180910390fd5b6000808673ffffffffffffffffffffffffffffffffffffffff1685876040516108569190611069565b60006040518083038185875af1925050503d8060008114610893576040519150601f19603f3d011682016040523d82523d6000602084013e610898565b606091505b50915091506108a88282866108d7565b92505050949350505050565b6000808273ffffffffffffffffffffffffffffffffffffffff163b119050919050565b606083156108e757829050610937565b6000835111156108fa5782518084602001fd5b816040517f08c379a000000000000000000000000000000000000000000000000000000000815260040161092e91906110d5565b60405180910390fd5b9392505050565b6000819050919050565b6109518161093e565b82525050565b600060208201905061096c6000830184610948565b92915050565b600073ffffffffffffffffffffffffffffffffffffffff82169050919050565b600061099d82610972565b9050919050565b6109ad81610992565b82525050565b60006020820190506109c860008301846109a4565b92915050565b60006109d982610972565b9050919050565b6109e9816109ce565b82525050565b6000602082019050610a0460008301846109e0565b92915050565b600080fd5b610a18816109ce565b8114610a2357600080fd5b50565b600081359050610a3581610a0f565b92915050565b600060208284031215610a5157610a50610a0a565b5b6000610a5f84828501610a26565b91505092915050565b6000819050919050565b6000610a8d610a88610a8384610972565b610a68565b610972565b9050919050565b6000610a9f82610a72565b9050919050565b6000610ab182610a94565b9050919050565b610ac181610aa6565b82525050565b6000602082019050610adc6000830184610ab8565b92915050565b600082825260208201905092915050565b7f5265656e7472616e637947756172643a207265656e7472616e742063616c6c00600082015250565b6000610b29601f83610ae2565b9150610b3482610af3565b602082019050919050565b60006020820190508181036000830152610b5881610b1c565b9050919050565b6000604082019050610b746000830185610948565b610b816020830184610948565b9392505050565b60008115159050919050565b610b9d81610b88565b8114610ba857600080fd5b50565b600081519050610bba81610b94565b92915050565b600060208284031215610bd657610bd5610a0a565b5b6000610be484828501610bab565b91505092915050565b7f4e6f7420696e207468652077686974656c697374210000000000000000000000600082015250565b6000610c23601583610ae2565b9150610c2e82610bed565b602082019050919050565b60006020820190508181036000830152610c5281610c16565b9050919050565b7f4e487b7100000000000000000000000000000000000000000000000000000000600052601160045260246000fd5b6000610c938261093e565b9150610c9e8361093e565b9250827fffffffffffffffffffffffffffffffffffffffffffffffffffffffffffffffff03821115610cd357610cd2610c59565b5b828201905092915050565b7f4d7943726f776453616c653a2062656e6566696369617279206973207468652060008201527f7a65726f20616464726573730000000000000000000000000000000000000000602082015250565b6000610d3a602c83610ae2565b9150610d4582610cde565b604082019050919050565b60006020820190508181036000830152610d6981610d2d565b9050919050565b7f4d7943726f776453616c653a20776569416d6f756e7420697320300000000000600082015250565b6000610da6601b83610ae2565b9150610db182610d70565b602082019050919050565b60006020820190508181036000830152610dd581610d99565b9050919050565b6000610de78261093e565b9150610df28361093e565b9250817fffffffffffffffffffffffffffffffffffffffffffffffffffffffffffffffff0483118215151615610e2b57610e2a610c59565b5b828202905092915050565b6000604082019050610e4b60008301856109e0565b610e586020830184610948565b9392505050565b7f5361666545524332303a204552433230206f7065726174696f6e20646964206e60008201527f6f74207375636365656400000000000000000000000000000000000000000000602082015250565b6000610ebb602a83610ae2565b9150610ec682610e5f565b604082019050919050565b60006020820190508181036000830152610eea81610eae565b9050919050565b7f416464726573733a20696e73756666696369656e742062616c616e636520666f60008201527f722063616c6c0000000000000000000000000000000000000000000000000000602082015250565b6000610f4d602683610ae2565b9150610f5882610ef1565b604082019050919050565b60006020820190508181036000830152610f7c81610f40565b9050919050565b7f416464726573733a2063616c6c20746f206e6f6e2d636f6e7472616374000000600082015250565b6000610fb9601d83610ae2565b9150610fc482610f83565b602082019050919050565b60006020820190508181036000830152610fe881610fac565b9050919050565b600081519050919050565b600081905092915050565b60005b83811015611023578082015181840152602081019050611008565b83811115611032576000848401525b50505050565b600061104382610fef565b61104d8185610ffa565b935061105d818560208601611005565b80840191505092915050565b60006110758284611038565b915081905092915050565b600081519050919050565b6000601f19601f8301169050919050565b60006110a782611080565b6110b18185610ae2565b93506110c1818560208601611005565b6110ca8161108b565b840191505092915050565b600060208201905081810360008301526110ef818461109c565b90509291505056fea26469706673582212204060dfc2574bb1436fcbafd9c0672abfbfddcf371e4be83ed92c08db4e1f95e464736f6c634300080f0033",
  "immutableReferences": {},
  "source": "//SPDX-License-Identifier: MIT\r\npragma solidity ^0.8.0;\r\n\r\nimport \"./MyCrowdSale.sol\";\r\nimport \"./KycContract.sol\";\r\n\r\n\r\ncontract MyTokenSale is MyCrowdSale {\r\n    KycContract kyc;\r\n    address public owner;\r\n\r\n    constructor(\r\n        uint256 rate,    // rate in TKNbits\r\n        address payable wallet,\r\n        IERC20 token,\r\n        KycContract _kyc\r\n    )  MyCrowdSale(rate, wallet, token) {\r\n        kyc = _kyc;\r\n        owner = msg.sender;\r\n    }\r\n\r\n    function _preValidatePurchase(address _beneficiary, uint256 _weiAmount) internal view override {\r\n        super._preValidatePurchase(_beneficiary, _weiAmount);\r\n       \r\n        require(kyc.kycWhitelisted(msg.sender), \"Not in the whitelist!\");\r\n\r\n    }\r\n\r\n\r\n\r\n}\r\n",
  "sourcePath": "D:\\Dev\\Estudos\\BlockchainDev\\UdemyCourseLab3-Tokenization\\contracts\\MyTokenSale.sol",
  "compiler": {
    "name": "solc",
    "version": "0.8.15+commit.e14f2714.Emscripten.clang"
  },
  "schemaVersion": "3.4.7",
  "updatedAt": "2022-06-21T01:23:07.284Z",
  "networkType": "ethereum",
  "devdoc": {
    "kind": "dev",
    "methods": {
      "buyTokens(address)": {
        "details": "low level token purchase ***DO NOT OVERRIDE*** This function has a non-reentrancy guard, so it shouldn't be called by another `nonReentrant` function.",
        "params": {
          "beneficiary": "Recipient of the token purchase"
        }
      },
      "rate()": {
        "returns": {
          "_0": "the number of token units a buyer gets per wei."
        }
      },
      "token()": {
        "returns": {
          "_0": "the token being sold."
        }
      },
      "wallet()": {
        "returns": {
          "_0": "the address where funds are collected."
        }
      },
      "weiRaised()": {
        "returns": {
          "_0": "the amount of wei raised."
        }
      }
    },
    "version": 1
  },
  "userdoc": {
    "events": {
      "TokensPurchased(address,address,uint256,uint256)": {
        "notice": "Event for token purchase logging"
      }
    },
    "kind": "user",
    "methods": {},
    "version": 1
  }
}